:100000000C9448000C945A000C945A000C945A001A
:100010000C945A000C945A000C945A000C945A00F8
:100020000C945A000C945A000C945A000C945A00E8
:100030000C9402010C945A000C945A000C945A002F
:100040000C945A000C945A000C945A000C945A00C8
:100050000C945A000C945A000C94E4000C945A002E
:100060000C945A000C945A000C945A000C945A00A8
:100070000C945A000C945A000C945A000C945A0098
:100080000C945A000C945A000C945A000C945A0088
:1000900011241FBECFEFCDBFDFE3DEBF28E2A0E01B
:1000A000B8E201C01D92A930B207E1F70E944F01EA
:1000B0000C94FE010C94000020E030E016C083EDAB
:1000C00090E30197F1F700C000008091062890911D
:1000D00007284091042850910528840F951F80938C
:1000E0000428909305282F5F3F4F283031053CF3BB
:1000F00080910428909105289695879596958795E7
:10010000969587958093042890930528089561E03B
:1001100081E690E00E94F80191E09093082880E148
:100120008093A104E0E0F4E024EF218320EE268315
:100130008683A0E4B4E084E011968C931197169620
:100140008C9380898860808BE0E8FAE08081816010
:10015000808320EA3FE0248735878581816085831D
:10016000109202281092032880E38093A000E0E020
:10017000F6E08081866080838181856081838281D1
:10018000826082838381806283839683828581609B
:10019000828780818160808380858160808786E11D
:1001A00080931201E0E0FAE080818260808380E346
:1001B00090E086A397A381818364818388E190E0A6
:1001C00084A795A7789408951F920F920FB60F9267
:1001D00011248F939F93809110069091110696950C
:1001E0008795929582958F7089279F708927809334
:1001F0000628909307289F918F910F900FBE0F9024
:100200001F9018951F920F920FB60F9211242F93E3
:100210008F939F93EF93FF938091022890910328EF
:1002200001968093022890930328809101288823C7
:10023000B1F08091022890910328833E944008F108
:10024000809108288F5F80930828109202281092CE
:1002500003288530B0F084E08093082812C0809194
:10026000022890910328833E944058F080910828FA
:10027000882319F081508093082810920228109248
:100280000328E0E8FAE086818683FF91EF919F9151
:100290008F912F910F900FBE0F901F9018950E9475
:1002A0008700C0E4D4E014E01D830E945C002FEDC1
:1002B00083E994E0215080409040E1F700C00000C5
:1002C00080E18093A5041E8390910028992371F00A
:1002D0002091062830910728263E310518F010920B
:1002E000012811C081E0809301280DC020910628CB
:1002F00030910728263E310520F081E080930128C7
:1003000002C010920128809108288230D1F128F48F
:10031000882351F08130F1F0D7CF833009F43DC00C
:10032000843009F446C0D0CFE0E0F4E084E0868376
:1003300090E19093A6048093460480E8868380E44D
:10034000868380E2868310922C0A10922D0AF894FC
:100350000000FDCF84E080934504E0E0F4E080E815
:10036000868380E4868380E286839111ADCFE0E0CE
:10037000FAE088E190E084A795A78081816080837E
:10038000A3CF84E080934504E0E0F4E080E8858337
:1003900080E4868380E2868397CF84E0809345045F
:1003A000E0E0F4E080E8858380E4858380E2868372
:1003B0008BCF80E390E080932C0A90932D0A80E409
:1003C000809305048091062890910728863E910528
:1003D00018F481E08093002884E080934504E0E0F5
:1003E000F4E080E8858380E4858380E285836CCFB8
:1003F000DC0128ED209334006C930895F894FFCF2E
:00000001FF
