:100000000C9448000C945A000C945A000C945A001A
:100010000C945A000C945A000C945A000C945A00F8
:100020000C945A000C945A000C945A000C945A00E8
:100030000C941E010C945A000C945A000C945A0013
:100040000C945A000C945A000C945A000C945A00C8
:100050000C945A000C945A000C94E5000C945A002D
:100060000C945A000C945A000C945A000C945A00A8
:100070000C945A000C945A000C945A000C945A0098
:100080000C945A000C945A000C945A000C945A0088
:1000900011241FBECFEFCDBFDFE3DEBF28E2A0E01B
:1000A000B8E201C01D92AB30B207E1F70E946B01CC
:1000B0000C9418020C94000020E030E016C083ED90
:1000C00090E30197F1F700C000008091082890911B
:1000D00009284091062850910728840F951F809386
:1000E0000628909307282F5F3F4F283031053CF3B7
:1000F00080910628909107289695879596958795E3
:10010000969587958093062890930728089561E037
:1001100081E690E00E94120291E090930A2880E12B
:100120008093A104E0E0F4E024EF2183928390EE39
:1001300096838683A0E4B4E084E011968C931197B3
:1001400016968C9380898860808BE0E8FAE0808145
:100150008160808380EA9FE08487958785818160C4
:100160008583109204281092052880E38093A000D4
:10017000E0E0F6E080818660808381818560818314
:1001800082818260828383818062838316828285FA
:1001900081608287808181608083808581608087A3
:1001A00086E180931201E0E0FAE080818C60808338
:1001B0008AEF90E086A397A38181836481838DE792
:1001C00090E080A791A7789408951F920F920FB6A0
:1001D0000F9211248F939F93EF93FF9380910606C4
:1001E000882369F080911006909111069695879565
:1001F00096958795809302289093032810C080914C
:1002000010069091110696958795929582958F701C
:1002100089279F7089278093082890930928E0E018
:10022000F6E0968181E089278683FF91EF919F9187
:100230008F910F900FBE0F901F9018951F920F92E5
:100240000FB60F9211242F938F939F93EF93FF93E9
:10025000809104289091052801968093042890931A
:100260000528809101288823B1F08091042890917D
:1002700005288D3D954008F180910A288F5F809375
:100280000A2810920428109205288530B0F084E0E6
:1002900080930A2812C08091042890910528833EFB
:1002A000944058F080910A28882319F08150809357
:1002B0000A281092042810920528E0E8FAE08681C6
:1002C0008683FF91EF919F918F912F910F900FBE99
:1002D0000F901F9018950E94870084E0809345043A
:1002E0000E945C002FED83E994E021508040904013
:1002F000E1F700C0000080E18093A5049091002800
:10030000992371F02091082830910928263E310563
:1003100018F01092012811C081E0809301280DC0CF
:100320002091082830910928263E310520F081E0EF
:100330008093012802C01092012880910A288230FF
:10034000D1F128F4882351F08130F1F0D7CF8330F8
:1003500009F43DC0843009F446C0D0CFE0E0F4E0B9
:1003600084E0868390E19093A6048093460480E81D
:10037000868380E4868380E2868310922C0A109222
:100380002D0AF8940000FDCF84E080934504E0E05E
:10039000F4E080E8868380E4868380E2868391119E
:1003A000ADCFE0E0FAE08DE790E084A795A78081EB
:1003B00081608083A3CF84E080934504E0E0F4E093
:1003C00080E8858380E4868380E2868397CF84E01B
:1003D00080934504E0E0F4E080E8858380E4858351
:1003E00080E286838BCF8AEF90E080932C0A9093F3
:1003F0002D0A80E4809305048091082890910928B3
:10040000863E910518F481E08093002884E0809373
:100410004504E0E0F4E080E8858380E4858380E2C1
:1004200085836CCFDC0128ED209334006C93089514
:04043000F894FFCF6E
:00000001FF
