:100000000C9448000C945A000C945A000C945A001A
:100010000C945A000C945A000C945A000C945A00F8
:100020000C945A000C945A000C945A000C945A00E8
:100030000C9420010C945A000C945A000C945A0011
:100040000C945A000C945A000C945A000C945A00C8
:100050000C945A000C945A000C94E7000C945A002B
:100060000C945A000C945A000C945A000C945A00A8
:100070000C945A000C945A000C945A000C945A0098
:100080000C945A000C945A000C945A000C945A0088
:1000900011241FBECFEFCDBFDFE3DEBF28E2A0E01B
:1000A000B8E201C01D92AB30B207E1F70E946D01CA
:1000B0000C9446020C94000020E030E016C083ED62
:1000C00090E30197F1F700C000008091082890911B
:1000D00009284091062850910728840F951F809386
:1000E0000628909307282F5F3F4F283031053CF3B7
:1000F00080910628909107289695879596958795E3
:10010000969587958093062890930728089561E037
:1001100081E690E00E94400291E090930A2880E1FD
:100120008093A104E0E0F4E02CEF2183928398E037
:10013000908B90EE96838683A0E4B4E084E01196E1
:100140008C93119716968C9380898860808BE0E859
:10015000FAE080818160808380EA9FE084879587D0
:10016000858181608583109204281092052880E3A0
:100170008093A000E0E0F6E080818660808381814A
:1001800085608183828182608283838180628383B0
:1001900016828285816082878081816080838085EC
:1001A0008160808786E180931201E0E0FAE080813F
:1001B0008C6080838AEF90E086A397A3818183641B
:1001C00081838DE790E080A791A7789408951F928E
:1001D0000F920FB60F9211248F939F93EF93FF937B
:1001E00080910606882369F080911006909111068F
:1001F00096958795969587958093022890930328E6
:1002000010C0809110069091110696958795929551
:1002100082958F7089279F708927809308289093F3
:100220000928E0E0F6E0968181E089278683FF9146
:10023000EF919F918F910F900FBE0F901F90189587
:100240001F920F920FB60F9211242F938F939F93AB
:10025000EF93FF9380910428909105280196809355
:10026000042890930528809101288823B1F080917B
:100270000428909105288F3E924008F180910A2829
:100280008F5F80930A2810920428109205288530E9
:10029000B0F084E080930A2812C0809104289091E5
:1002A00005288536910558F080910A28882319F091
:1002B000815080930A281092042810920528E0E8C3
:1002C000FAE086818683FF91EF919F918F912F9124
:1002D0000F900FBE0F901F9018950E94870084E02A
:1002E000809345040E945C002FED83E994E0215047
:1002F00080409040E1F700C0000080E18093A504B9
:100300008091080480FF04C081E08093012802C02E
:100310001092012880910A28823009F44CC028F4F8
:10032000882351F0813039F1EBCF833009F469C073
:10033000843009F486C0E4CFE0E0F4E084E0868312
:100340008093460480E8868380E4868380E2868307
:1003500088E086831092002810922C0A10922D0AB1
:100360008091082890910928863E910548F280E105
:100370008093A604C5CF84E080934504E0E0F4E0D8
:1003800080E8868380E4868380E2868388E08683B3
:100390008091002881110AC0E0E0FAE08DE790E04A
:1003A00084A795A7808181608083AACF10922C0AB0
:1003B00010922D0AA5CF8AEF90E080932C0A90939B
:1003C0002D0A84E080934504E0E0F4E080E8858332
:1003D00080E4868380E2868388E08683809100289B
:1003E00081110AC0E0E0FAE08AEF90E084A795A7C7
:1003F00080818160808384CF10922C0A10922D0A14
:100400007FCF8091002881110AC0E0E0FAE08AEFF6
:1004100090E084A795A780818160808304C01092BA
:100420002C0A10922D0A84E080934504E0E0F4E069
:1004300080E8858380E4858380E2868388E0858305
:100440005FCF10922C0A10922D0A80E4809305044D
:100450008091082890910928863E910518F481E042
:100460008093002884E080934504E0E0F4E080E895
:10047000858380E4858380E2858388E0858340CF1F
:10048000DC0128ED209334006C930895F894FFCF9D
:00000001FF
